:020000040000fa
:080000000001040000000000f3
:020000040000fa
:0400080004020000ee
:020000040000fa
:04000c0046020000a8
:020000040000fa
:040010008602000064
:020000040000fa
:0400140024020000c2
:020000040000fa
:04001800660200007c
:020000040000fa
:04001c00a602000038
:020000040000fa
:04002000a602000034
:020000040000fa
:04002400a602000030
:020000040000fa
:04002800a60200002c
:020000040000fa
:04002c00a602000028
:020000040000fa
:04003000a602000024
:020000040000fa
:04003400a602000020
:020000040000fa
:04003800a60200001c
:020000040000fa
:04003c00a602000018
:020000040000fa
:04004000a602000014
:020000040000fa
:04004400a602000010
:020000040000fa
:04004800a60200000c
:020000040000fa
:04004c00a602000008
:020000040000fa
:04005000a602000004
:020000040000fa
:04005400a602000000
:020000040000fa
:04005800a6020000fc
:020000040000fa
:04005c00a6020000f8
:020000040000fa
:04006000a6020000f4
:020000040000fa
:04006400a6020000f0
:020000040000fa
:04006800a6020000ec
:020000040000fa
:04006c00a6020000e8
:020000040000fa
:04007000a6020000e4
:020000040000fa
:04007400a6020000e0
:020000040000fa
:04007800a6020000dc
:020000040000fa
:04007c00a6020000d8
:020000040000fa
:04008000a6020000d4
:020000040000fa
:04008400a6020000d0
:020000040000fa
:04008800a6020000cc
:020000040000fa
:04008c00a6020000c8
:020000040000fa
:04009000a6020000c4
:020000040000fa
:04009400a6020000c0
:020000040000fa
:04009800a6020000bc
:020000040000fa
:04009c00a6020000b8
:020000040000fa
:0400a000a6020000b4
:020000040000fa
:0400a400a6020000b0
:020000040000fa
:0400a800a6020000ac
:020000040000fa
:0400ac00a6020000a8
:020000040000fa
:0400b000a6020000a4
:020000040000fa
:0400b400a6020000a0
:020000040000fa
:0400b800a60200009c
:020000040000fa
:0400bc00a602000098
:020000040000fa
:0400c000a602000094
:020000040000fa
:0400c400a602000090
:020000040000fa
:0400c800a60200008c
:020000040000fa
:0400cc00a602000088
:020000040000fa
:0400d000a602000084
:020000040000fa
:0400d400a602000080
:020000040000fa
:0400d800a60200007c
:020000040000fa
:0400dc00a602000078
:020000040000fa
:0400e000a602000074
:020000040000fa
:0400e400a602000070
:020000040000fa
:0400e800a60200006c
:020000040000fa
:0400ec00a602000068
:020000040000fa
:0400f000a602000064
:020000040000fa
:0400f400a602000060
:020000040000fa
:0400f800a60200005c
:020000040000fa
:0400fc00a602000058
:020000040000fa
:04010000a602000053
:020000040000fa
:04010400a60200004f
:020000040000fa
:04010800a60200004b
:020000040000fa
:04010c00a602000047
:020000040000fa
:04011000a602000043
:020000040000fa
:04011400a60200003f
:020000040000fa
:04011800a60200003b
:020000040000fa
:04011c00a602000037
:020000040000fa
:04012000a602000033
:020000040000fa
:04012400a60200002f
:020000040000fa
:04012800a60200002b
:020000040000fa
:04012c00a602000027
:020000040000fa
:04013000a602000023
:020000040000fa
:04013400a60200001f
:020000040000fa
:04013800a60200001b
:020000040000fa
:04013c00a602000017
:020000040000fa
:04014000a602000013
:020000040000fa
:04014400a60200000f
:020000040000fa
:04014800a60200000b
:020000040000fa
:04014c00a602000007
:020000040000fa
:04015000a602000003
:020000040000fa
:04015400a6020000ff
:020000040000fa
:04015800a6020000fb
:020000040000fa
:04015c00a6020000f7
:020000040000fa
:04016000a6020000f3
:020000040000fa
:04016400a6020000ef
:020000040000fa
:04016800a6020000eb
:020000040000fa
:04016c00a6020000e7
:020000040000fa
:04017000a6020000e3
:020000040000fa
:04017400a6020000df
:020000040000fa
:04017800a6020000db
:020000040000fa
:04017c00a6020000d7
:020000040000fa
:04018000a6020000d3
:020000040000fa
:04018400a6020000cf
:020000040000fa
:04018800a6020000cb
:020000040000fa
:04018c00a6020000c7
:020000040000fa
:04019000a6020000c3
:020000040000fa
:04019400a6020000bf
:020000040000fa
:04019800a6020000bb
:020000040000fa
:04019c00a6020000b7
:020000040000fa
:0401a000a6020000b3
:020000040000fa
:0401a400a6020000af
:020000040000fa
:0401a800a6020000ab
:020000040000fa
:0401ac00a6020000a7
:020000040000fa
:0401b000a6020000a3
:020000040000fa
:0401b400a60200009f
:020000040000fa
:0401b800a60200009b
:020000040000fa
:0401bc00a602000097
:020000040000fa
:0401c000a602000093
:020000040000fa
:0401c400a60200008f
:020000040000fa
:0401c800a60200008b
:020000040000fa
:0401cc00a602000087
:020000040000fa
:0401d000a602000083
:020000040000fa
:0401d400a60200007f
:020000040000fa
:0401d800a60200007b
:020000040000fa
:0401dc00a602000077
:020000040000fa
:0401e000a602000073
:020000040000fa
:0401e400a60200006f
:020000040000fa
:0401e800a60200006b
:020000040000fa
:0401ec00a602000067
:020000040000fa
:0401f000a602000063
:020000040000fa
:0401f400a60200005f
:020000040000fa
:0401f800a60200005b
:020000040000fa
:0401fc00a602000057
:020000040000fa
:10020000af8220000e7f24000e0188000000000055
:10021000000020000000e000020032000001200089
:100220002002880014000700ca0007000000e00058
:1002300003003a00e07720000100200002003700b0
:100240000000200001002000810f7000010032003a
:1002500014000700000020000000e000020032004f
:100260000000020000000000d007020000000000b3
:100270000040da000000fe004440a90020002000f9
:100280000000e00003003200100020009001880010
:100290004440a800000006008a1f78008b1f7800e9
:1002a00000000600a1028800800478000000eb0036
:1002b0001f003700e284440054a0b4009905ba003e
:1002c000e284440054a0b4009906ba00e2844400d9
:1002d00054a0b4000006eb00476fde00fd07b2003b
:1002e000ae018800636ce10003003a00eaff0700fa
:1002f0000000eb000e003700606ce10008003a00df
:10030000004deb000a05e800020039003420ec0043
:100310000af0a0008b05e900f9ff3e000400370059
:100320006168e100010032000086eb000b0007006d
:1003300019c7ba001905ba000e04e00003003a001c
:100340000a00e000dbff3a0000000600fe07b200f2
:10035000ae0288008a047800f5ff37000cd0a300b5
:10036000e20f4d001c00390089027800354dba00bb
:100370000a05e800020039003420ec000af0a00071
:100380008b05e9000f003200254dba000a05e80090
:10039000020039003420ec000af0a0008b05e900cf
:1003a000080032000c00e0000600320015cdba0053
:1003b0000a05e800020039003420ec000af0a00031
:1003c0008b05e9008984e80054a0b4000b00e0002c
:1003d000e2ff3a00000006009902ba00055d7800cd
:1003e0008b05e900f7ff3200c82ade00055d7800c2
:1003f0008b05e900f3ff32000c00e000f1ff320052
:1004000019ddba00eeff37003600f800809fbe000d
:10041000829fbe00849fbe00869fbe000000fa003f
:100420008020a9000000eb00c80207000080fa004d
:100430004f03be004f02be004f01be004f00be0082
:100440003600f900004006003600f800809fbe002c
:10045000829fbe00849fbe00869fbe000000fa00ff
:10046000bf0207008040a90010002000b70207006b
:100470000080fa004f03be004f02be004f01be00d5
:100480004f00be003600f900004006003600f800bc
:10049000809fbe00829fbe00849fbe00869fbe00dc
:1004a0000000fa008060a90020002000a7020700d9
:1004b0000080fa004f03be004f02be004f01be0095
:1004c0004f00be003600f900004006003600f8007c
:1004d000809fbe00829fbe00849fbe00869fbe009c
:1004e0000000fa008080a900300020009702070079
:1004f0000080fa004f03be004f02be004f01be0055
:100500004f00be003600f900004006003600f8003b
:10051000809fbe00829fbe00849fbe00869fbe005b
:100520000000fa008600a900700020008702070082
:100530000080fa004f03be004f02be004f01be0014
:100540004f00be003600f900004006000040da000f
:080550000000fe0000000500a0
:020000040000fa
:100558000000fa001224ef001424ef001824ef0022
:100568002024ef002424ef002624ef002824ef00a5
:100578002a24ef0010022800802088000080fa005a
:10058800000006000400fa00000f78001107980028
:1005980000000000c0208000620060000000e00051
:1005a800fcff3a001e007800104078000080fb0035
:1005b800e020880000000000c12080000002200028
:1005c800008060000000e000fbff3a00e0208000af
:1005d800804078001e009000014878000080fa00f2
:1005e800000006001800fa00100f9800210f98006c
:1005f800320f98000000eb00000f78000000eb00bd
:10060800100798000000eb00700798000000eb004e
:10061800000f980010002000600798001e08900046
:100628000000e00005003a000000eb0050079800c9
:10063800700047002007980004003700ee00900083
:10064800510798009e089000210798003e089000e6
:100658000000e00005003a000000eb0040079800a9
:100668006e0047003007980005003700ee00900044
:1006780041079800be08900031079800000000006c
:10068800c0208000620060000000e000fcff3a002b
:100698001d003700c0208000620060000000e000fc
:1006a80009003a002e009000104078000080fb00fe
:1006b800e0208800ae0090005e00900000804000be
:1006c800200798001e0fe800c120800000022000cb
:1006d800008060000000e0000b003a00e02080008d
:1006e800804078003e00900001487800be009000ed
:1006f8004e00900000804000300798001e009000d7
:100708000000e800100798002e0890009e0078006e
:10071800808f5000dfff390010003700c1208000b3
:1007280000022000008060000000e0000b003a009a
:10073800e0208000804078003e009000014878006a
:10074800be0090004e0090000080400030079800e6
:100758001e0090000000e800100798009e0090001e
:100768002e089000808f5000ecff39001e007800a2
:100778000080fa00000006000400fa0020479800f4
:100788000e80e8008e0078007eff07001e4078008b
:100798000080fa00000006000600fa00000f78004a
:1007a80011079800220798002e0190009e009000e3
:1007b8001e0078008bff07000080fa00000006008a
:1007c8000000fa0081208000008020000080600086
:1007d8000000e0000200320020002000080037007e
:1007e8008120800000402000008060000000e000c0
:1007f8000200320010002000010037000000eb006a
:100808000080fa00000006000000fa00c020800006
:100818000080fa00000006000000fa0040002000f6
:10082800001888000223ef000423ef000623ef00de
:100838000a23ef000c23ef001023ef001223ef0030
:10084800f0ff2300a01888001623ef001823ef00fc
:10085800f0ff2100e01888002023ef002223ef009a
:1008680001e3a80000188000004078006f40600095
:100878000080fb00104088000080fa00000006009d
:100888000000fa000080fa00000006000000fa00ec
:100898009104800000002800008060000000e00053
:1008a80002003200f6ff070093e0a9000080fa007a
:1008b800000006000000fa000080fa0000000600b0
:1008c8000000fa0061048000000021000080600040
:1008d8000000e00002003200f6ff07008d80a9004a
:1008e8000080fa00000006000000fa0001e3a800fa
:1008f8000080fa00000006000000fa0001e3a900e9
:100908000080fa00000006000200fa00000f7800dc
:100918009e007800c11888000080fa0000000600d8
:100928000400fa00000f7800110798009e00780074
:10093800c11888009e009000e11888000080fa0025
:10094800000006000400fa00000f78001107980064
:100958009e007800c11888009e009000e118880069
:100968000080fa00000006000400fa00000f78007a
:10097800110798009e007800c11888009e0090001a
:10098800e11888000080fa00000006000400fa0060
:10099800000f7800110798009e007800c1188800a1
:1009a8009e009000e11888000080fa000000060010
:1009b8000200fa00000f78009e007800c118880035
:1009c8000080fa00000006000000fa009004800091
:1009d8004f00de00004078000080fb0000f0a70018
:1009e8000000ea000000ea004f00de000040780046
:1009f8000080fa00000006000000fa00601880007d
:100a08004700de00614060000080fb0000f0a700a6
:100a18000000ea000000ea004f00de000040780015
:100a28000080fa00000006000000fa000cc3a800cd
:100a38000080fa00000006000000fa000ca3a800dd
:100a48000080fa00000006000000fa00601880002c
:100a58004300de00614060000080fb0000f0a7005a
:100a68000000ea000000ea004f00de0000407800c5
:100a78000080fa00000006000000fa000c63a900dc
:100a88000080fa00000006000000fa004000200084
:100a9800801488009222ef009422ef009622ef0043
:100aa8009a22ef009c22ef00a022ef00a222ef0082
:100ab800f0ff230020158800a622ef00a822ef00ef
:100ac800f0ff210060158800b022ef00b222ef008d
:100ad80091e2a80080148000004078006f40600018
:100ae8000080fb00404088000080fa0000000600fb
:100af8000000fa000080fa00000006000000fa007a
:100b080080048000610060000000e0000200320004
:100b1800f7ff07009000a9000080fa000000060017
:100b28000000fa000080fa00000006000000fa0049
:100b3800a104800000042000008060000000e000a4
:100b480002003200f6ff070094c0a9000080fa00f6
:100b5800000006000000fa0091e2a8000080fa00f8
:100b6800000006000000fa0091e2a9000080fa00e7
:100b7800000006000200fa00000f78009e007800ce
:100b8800411588000080fa00000006000400fa0001
:100b9800000f7800110798009e0078004115880022
:100ba8009e009000611588000080fa000000060091
:100bb8000400fa00000f7800110798009e007800e2
:100bc800411588009e009000611588000080fa0099
:100bd800000006000400fa00000f780011079800d2
:100be8009e007800411588009e00900061158800dd
:100bf8000080fa00000006000400fa00000f7800e8
:100c0800110798009e007800411588009e0090000a
:100c1800611588000080fa00000006000200fa0052
:100c2800000f78009e007800411588000080fa00c7
:100c3800000006000000fa008004800000407800f0
:100c4800614060000080fb0000f0a7000000ea009f
:100c58000000ea004f00de00004078000080fa0043
:100c6800000006000000fa00e01480004700de00e3
:100c7800614060000080fb0000f0a7000000ea006f
:100c88000000ea004f00de00004078000080fa0013
:100c9800000006000000fa009cc2a8000080fa00cc
:100ca800000006000000fa009ca2a8000080fa00dc
:100cb800000006000000fa00e01480004300de0097
:100cc800614060000080fb0000f0a7000000ea001f
:100cd8000000ea004f00de00004078000080fa00c3
:100ce800000006000000fa009c62a9000080fa00db
:100cf800000006000000fa00000023001008880029
:100d08000621ef006821ef006a21ef000821ef00bb
:100d180000702000500888000c21ef000e21ef0021
:100d28007821ef007a21ef007c21ef007e21ef008f
:100d38008021ef008221ef008421ef008621ef005f
:100d48000001eb0080072000a109200013102000fb
:100d58008049780081497800824978000001eb00d9
:100d680060042000710520000310200080497800ed
:100d780081497800824978000080fa000000060066
:100d88000000fa000080fa00000006000000fa00e7
:100d9800d5fe070010c0b30004e8b7000080fa00d1
:100da800000006000000fa00d3fe07000468ef0008
:100db8000080fa00000006000000fa0004c8bf0026
:100dc8000004e00002003200f6ff070001003700cf
:100dd800eeff07000080fa00000006000200fa009b
:100de800000f78001e0078004600de00000f780033
:100df8009e0078000000eb00c9fe07000080fa00a2
:100e0800000006000000fa000080fa00000006005a
:100e18000000fa004fff070010c0b30006e8b70053
:100e28000080fa00000006000000fa004dff0700ed
:100e38000668ef000080fa00000006000000fa00d3
:100e480006c8bf000004e00002003200f6ff0700f9
:100e580001003700eeff07000080fa0000000600de
:100e68000200fa00000f78001e0078004600de003d
:100e7800000f78009e0078000000eb0043ff070099
:100e88000080fa00000006000000fa006626ef0065
:100e98007a26ef008e26ef0070f9270010338800bd
:100ea8000080eb00b0338800f03f20005034880009
:100eb8007426ef008826ef009c26ef007226ef00cc
:100ec8008626ef009a26ef006826ef007c26ef00c2
:100ed8009026ef007000200050338800c0202f00bb
:100ee800f0338800f0002000903488000080fa0079
:040ef80000000600f0
:020000040000fa
:100efc000a0800002000000080000000000800002c
:100f0c000200000082000000ffff00000208000049
:100f1c000200000080000000040800000200000035
:100f2c0080000000060800000200000080000000a5
:100f3c000808000002000000800000000000000013
:020000040000fa
:100f4c000200fa00000f78009e0078000140880033
:100f5c00ffff37000000fa00a08020008007780017
:100f6c0020822000000188000080fa0000000600aa
:100f7c000000fa00c3ff07000d0007005cff07002c
:100f8c0024fe0700bffe070070fd07000080fa007a
:100f9c00000006000000fa00f5ff070077ff0700cd
:100fac0097ff070083ff0700a3ff0700ffff370031
:0c0fbc000000fa000080fa0000000600af
:020000040000fa
:020000040002f8
:04be0000ffffff0041
:020000040000fa
:020000040002f8
:04be2000ffffff0021
:020000040000fa
:020000040002f8
:04be300078ffff0098
:020000040000fa
:020000040002f8
:04be3800b7ffff0051
:020000040000fa
:020000040002f8
:04be40009fffff0061
:020000040000fa
:020000040002f8
:04be4800ffffff00f9
:020000040000fa
:020000040002f8
:04be5000dfffff0011
:020000040000fa
:020000040002f8
:04be5800ffffff00e9
:00000001FF
